{
  "_format": "hh-sol-artifact-1",
  "contractName": "DegenToken",
  "sourceName": "contracts/DegenToken.sol",
  "abi": [
    {
      "inputs": [],
      "stateMutability": "nonpayable",
      "type": "constructor"
    },
    {
      "inputs": [
        {
          "internalType": "address",
          "name": "spender",
          "type": "address"
        },
        {
          "internalType": "uint256",
          "name": "allowance",
          "type": "uint256"
        },
        {
          "internalType": "uint256",
          "name": "needed",
          "type": "uint256"
        }
      ],
      "name": "ERC20InsufficientAllowance",
      "type": "error"
    },
    {
      "inputs": [
        {
          "internalType": "address",
          "name": "sender",
          "type": "address"
        },
        {
          "internalType": "uint256",
          "name": "balance",
          "type": "uint256"
        },
        {
          "internalType": "uint256",
          "name": "needed",
          "type": "uint256"
        }
      ],
      "name": "ERC20InsufficientBalance",
      "type": "error"
    },
    {
      "inputs": [
        {
          "internalType": "address",
          "name": "approver",
          "type": "address"
        }
      ],
      "name": "ERC20InvalidApprover",
      "type": "error"
    },
    {
      "inputs": [
        {
          "internalType": "address",
          "name": "receiver",
          "type": "address"
        }
      ],
      "name": "ERC20InvalidReceiver",
      "type": "error"
    },
    {
      "inputs": [
        {
          "internalType": "address",
          "name": "sender",
          "type": "address"
        }
      ],
      "name": "ERC20InvalidSender",
      "type": "error"
    },
    {
      "inputs": [
        {
          "internalType": "address",
          "name": "spender",
          "type": "address"
        }
      ],
      "name": "ERC20InvalidSpender",
      "type": "error"
    },
    {
      "anonymous": false,
      "inputs": [
        {
          "indexed": true,
          "internalType": "address",
          "name": "owner",
          "type": "address"
        },
        {
          "indexed": true,
          "internalType": "address",
          "name": "spender",
          "type": "address"
        },
        {
          "indexed": false,
          "internalType": "uint256",
          "name": "value",
          "type": "uint256"
        }
      ],
      "name": "Approval",
      "type": "event"
    },
    {
      "anonymous": false,
      "inputs": [
        {
          "indexed": true,
          "internalType": "address",
          "name": "from",
          "type": "address"
        },
        {
          "indexed": true,
          "internalType": "address",
          "name": "to",
          "type": "address"
        },
        {
          "indexed": false,
          "internalType": "uint256",
          "name": "value",
          "type": "uint256"
        }
      ],
      "name": "Transfer",
      "type": "event"
    },
    {
      "inputs": [
        {
          "internalType": "address",
          "name": "owner",
          "type": "address"
        },
        {
          "internalType": "address",
          "name": "spender",
          "type": "address"
        }
      ],
      "name": "allowance",
      "outputs": [
        {
          "internalType": "uint256",
          "name": "",
          "type": "uint256"
        }
      ],
      "stateMutability": "view",
      "type": "function"
    },
    {
      "inputs": [
        {
          "internalType": "address",
          "name": "spender",
          "type": "address"
        },
        {
          "internalType": "uint256",
          "name": "value",
          "type": "uint256"
        }
      ],
      "name": "approve",
      "outputs": [
        {
          "internalType": "bool",
          "name": "",
          "type": "bool"
        }
      ],
      "stateMutability": "nonpayable",
      "type": "function"
    },
    {
      "inputs": [
        {
          "internalType": "address",
          "name": "account",
          "type": "address"
        }
      ],
      "name": "balanceOf",
      "outputs": [
        {
          "internalType": "uint256",
          "name": "",
          "type": "uint256"
        }
      ],
      "stateMutability": "view",
      "type": "function"
    },
    {
      "inputs": [
        {
          "internalType": "uint256",
          "name": "amount",
          "type": "uint256"
        }
      ],
      "name": "burnDegenToken",
      "outputs": [],
      "stateMutability": "nonpayable",
      "type": "function"
    },
    {
      "inputs": [],
      "name": "buyToken",
      "outputs": [],
      "stateMutability": "payable",
      "type": "function"
    },
    {
      "inputs": [],
      "name": "decimals",
      "outputs": [
        {
          "internalType": "uint8",
          "name": "",
          "type": "uint8"
        }
      ],
      "stateMutability": "view",
      "type": "function"
    },
    {
      "inputs": [],
      "name": "emblemCost",
      "outputs": [
        {
          "internalType": "uint256",
          "name": "",
          "type": "uint256"
        }
      ],
      "stateMutability": "view",
      "type": "function"
    },
    {
      "inputs": [
        {
          "internalType": "address",
          "name": "player",
          "type": "address"
        }
      ],
      "name": "getTokenBalance",
      "outputs": [
        {
          "internalType": "uint256",
          "name": "",
          "type": "uint256"
        }
      ],
      "stateMutability": "view",
      "type": "function"
    },
    {
      "inputs": [],
      "name": "healthCost",
      "outputs": [
        {
          "internalType": "uint256",
          "name": "",
          "type": "uint256"
        }
      ],
      "stateMutability": "view",
      "type": "function"
    },
    {
      "inputs": [
        {
          "internalType": "address",
          "name": "_player",
          "type": "address"
        },
        {
          "internalType": "uint256",
          "name": "_amount",
          "type": "uint256"
        }
      ],
      "name": "mintDegenToken",
      "outputs": [],
      "stateMutability": "nonpayable",
      "type": "function"
    },
    {
      "inputs": [],
      "name": "name",
      "outputs": [
        {
          "internalType": "string",
          "name": "",
          "type": "string"
        }
      ],
      "stateMutability": "view",
      "type": "function"
    },
    {
      "inputs": [
        {
          "internalType": "string",
          "name": "_item",
          "type": "string"
        }
      ],
      "name": "redeemItem",
      "outputs": [],
      "stateMutability": "nonpayable",
      "type": "function"
    },
    {
      "inputs": [],
      "name": "skinCost",
      "outputs": [
        {
          "internalType": "uint256",
          "name": "",
          "type": "uint256"
        }
      ],
      "stateMutability": "view",
      "type": "function"
    },
    {
      "inputs": [],
      "name": "symbol",
      "outputs": [
        {
          "internalType": "string",
          "name": "",
          "type": "string"
        }
      ],
      "stateMutability": "view",
      "type": "function"
    },
    {
      "inputs": [],
      "name": "tokenPrice",
      "outputs": [
        {
          "internalType": "uint256",
          "name": "",
          "type": "uint256"
        }
      ],
      "stateMutability": "view",
      "type": "function"
    },
    {
      "inputs": [],
      "name": "totalSupply",
      "outputs": [
        {
          "internalType": "uint256",
          "name": "",
          "type": "uint256"
        }
      ],
      "stateMutability": "view",
      "type": "function"
    },
    {
      "inputs": [
        {
          "internalType": "address",
          "name": "to",
          "type": "address"
        },
        {
          "internalType": "uint256",
          "name": "value",
          "type": "uint256"
        }
      ],
      "name": "transfer",
      "outputs": [
        {
          "internalType": "bool",
          "name": "",
          "type": "bool"
        }
      ],
      "stateMutability": "nonpayable",
      "type": "function"
    },
    {
      "inputs": [
        {
          "internalType": "address",
          "name": "to",
          "type": "address"
        },
        {
          "internalType": "uint256",
          "name": "amount",
          "type": "uint256"
        }
      ],
      "name": "transferDegenToken",
      "outputs": [],
      "stateMutability": "nonpayable",
      "type": "function"
    },
    {
      "inputs": [
        {
          "internalType": "address",
          "name": "from",
          "type": "address"
        },
        {
          "internalType": "address",
          "name": "to",
          "type": "address"
        },
        {
          "internalType": "uint256",
          "name": "value",
          "type": "uint256"
        }
      ],
      "name": "transferFrom",
      "outputs": [
        {
          "internalType": "bool",
          "name": "",
          "type": "bool"
        }
      ],
      "stateMutability": "nonpayable",
      "type": "function"
    }
  ],
  "bytecode": "0x60806040523480156200001157600080fd5b506040518060400160405280600a81526020017f446567656e546f6b656e000000000000000000000000000000000000000000008152506040518060400160405280600381526020017f44474e000000000000000000000000000000000000000000000000000000000081525081600390816200008f919062000385565b508060049081620000a1919062000385565b50505033600560006101000a81548173ffffffffffffffffffffffffffffffffffffffff021916908373ffffffffffffffffffffffffffffffffffffffff1602179055506064600681905550600a600781905550600560088190555060026009819055506200046c565b600081519050919050565b7f4e487b7100000000000000000000000000000000000000000000000000000000600052604160045260246000fd5b7f4e487b7100000000000000000000000000000000000000000000000000000000600052602260045260246000fd5b600060028204905060018216806200018d57607f821691505b602082108103620001a357620001a262000145565b5b50919050565b60008190508160005260206000209050919050565b60006020601f8301049050919050565b600082821b905092915050565b6000600883026200020d7fffffffffffffffffffffffffffffffffffffffffffffffffffffffffffffffff82620001ce565b620002198683620001ce565b95508019841693508086168417925050509392505050565b6000819050919050565b6000819050919050565b600062000266620002606200025a8462000231565b6200023b565b62000231565b9050919050565b6000819050919050565b620002828362000245565b6200029a62000291826200026d565b848454620001db565b825550505050565b600090565b620002b1620002a2565b620002be81848462000277565b505050565b5b81811015620002e657620002da600082620002a7565b600181019050620002c4565b5050565b601f8211156200033557620002ff81620001a9565b6200030a84620001be565b810160208510156200031a578190505b620003326200032985620001be565b830182620002c3565b50505b505050565b600082821c905092915050565b60006200035a600019846008026200033a565b1980831691505092915050565b600062000375838362000347565b9150826002028217905092915050565b62000390826200010b565b67ffffffffffffffff811115620003ac57620003ab62000116565b5b620003b8825462000174565b620003c5828285620002ea565b600060209050601f831160018114620003fd5760008415620003e8578287015190505b620003f4858262000367565b86555062000464565b601f1984166200040d86620001a9565b60005b82811015620004375784890151825560018201915060208501945060208101905062000410565b8683101562000457578489015162000453601f89168262000347565b8355505b6001600288020188555050505b505050505050565b6119df806200047c6000396000f3fe6080604052600436106101145760003560e01c806370a08231116100a0578063ac60345b11610064578063ac60345b146103a8578063d77243e9146103d1578063dd62ed3e146103fc578063ddaa868014610439578063f195bab51461046457610114565b806370a08231146102ce5780637ff9b5961461030b57806395d89b4114610336578063a482171914610361578063a9059cbb1461036b57610114565b80632dc64e12116100e75780632dc64e12146101e9578063313ce567146102125780633aecd0e31461023d5780635c79094e1461027a5780636985ce0e146102a557610114565b806306fdde0314610119578063095ea7b31461014457806318160ddd1461018157806323b872dd146101ac575b600080fd5b34801561012557600080fd5b5061012e61048d565b60405161013b9190611152565b60405180910390f35b34801561015057600080fd5b5061016b60048036038101906101669190611212565b61051f565b604051610178919061126d565b60405180910390f35b34801561018d57600080fd5b50610196610542565b6040516101a39190611297565b60405180910390f35b3480156101b857600080fd5b506101d360048036038101906101ce91906112b2565b61054c565b6040516101e0919061126d565b60405180910390f35b3480156101f557600080fd5b50610210600480360381019061020b9190611212565b61057b565b005b34801561021e57600080fd5b5061022761058a565b6040516102349190611321565b60405180910390f35b34801561024957600080fd5b50610264600480360381019061025f919061133c565b610593565b6040516102719190611297565b60405180910390f35b34801561028657600080fd5b5061028f6105a5565b60405161029c9190611297565b60405180910390f35b3480156102b157600080fd5b506102cc60048036038101906102c79190611212565b6105ab565b005b3480156102da57600080fd5b506102f560048036038101906102f0919061133c565b610649565b6040516103029190611297565b60405180910390f35b34801561031757600080fd5b50610320610691565b60405161032d9190611297565b60405180910390f35b34801561034257600080fd5b5061034b610697565b6040516103589190611152565b60405180910390f35b610369610729565b005b34801561037757600080fd5b50610392600480360381019061038d9190611212565b610748565b60405161039f919061126d565b60405180910390f35b3480156103b457600080fd5b506103cf60048036038101906103ca91906113ce565b61076b565b005b3480156103dd57600080fd5b506103e6610980565b6040516103f39190611297565b60405180910390f35b34801561040857600080fd5b50610423600480360381019061041e919061141b565b610986565b6040516104309190611297565b60405180910390f35b34801561044557600080fd5b5061044e610a0d565b60405161045b9190611297565b60405180910390f35b34801561047057600080fd5b5061048b6004803603810190610486919061145b565b610a13565b005b60606003805461049c906114b7565b80601f01602080910402602001604051908101604052809291908181526020018280546104c8906114b7565b80156105155780601f106104ea57610100808354040283529160200191610515565b820191906000526020600020905b8154815290600101906020018083116104f857829003601f168201915b5050505050905090565b60008061052a610a20565b9050610537818585610a28565b600191505092915050565b6000600254905090565b600080610557610a20565b9050610564858285610a3a565b61056f858585610ace565b60019150509392505050565b610586338383610ace565b5050565b60006012905090565b600061059e82610649565b9050919050565b60075481565b600560009054906101000a900473ffffffffffffffffffffffffffffffffffffffff1673ffffffffffffffffffffffffffffffffffffffff163373ffffffffffffffffffffffffffffffffffffffff161461063b576040517f08c379a000000000000000000000000000000000000000000000000000000000815260040161063290611534565b60405180910390fd5b6106458282610bc2565b5050565b60008060008373ffffffffffffffffffffffffffffffffffffffff1673ffffffffffffffffffffffffffffffffffffffff168152602001908152602001600020549050919050565b60065481565b6060600480546106a6906114b7565b80601f01602080910402602001604051908101604052809291908181526020018280546106d2906114b7565b801561071f5780601f106106f45761010080835404028352916020019161071f565b820191906000526020600020905b81548152906001019060200180831161070257829003601f168201915b5050505050905090565b60006006543461073991906115b2565b90506107453382610bc2565b50565b600080610753610a20565b9050610760818585610ace565b600191505092915050565b60405160200161077a9061163a565b6040516020818303038152906040528051906020012082826040516020016107a3929190611683565b604051602081830303815290604052805190602001200361081c576007546107ca33610649565b101561080b576040517f08c379a00000000000000000000000000000000000000000000000000000000081526004016108029061170e565b60405180910390fd5b61081733600754610c44565b61097c565b60405160200161082b9061177a565b604051602081830303815290604052805190602001208282604051602001610854929190611683565b60405160208183030381529060405280519060200120036108cd5760085461087b33610649565b10156108bc576040517f08c379a00000000000000000000000000000000000000000000000000000000081526004016108b390611801565b60405180910390fd5b6108c833600854610c44565b61097b565b6040516020016108dc9061186d565b604051602081830303815290604052805190602001208282604051602001610905929190611683565b604051602081830303815290604052805190602001200361097a5760095461092c33610649565b101561096d576040517f08c379a0000000000000000000000000000000000000000000000000000000008152600401610964906118f4565b60405180910390fd5b61097933600954610c44565b5b5b5b5050565b60085481565b6000600160008473ffffffffffffffffffffffffffffffffffffffff1673ffffffffffffffffffffffffffffffffffffffff16815260200190815260200160002060008373ffffffffffffffffffffffffffffffffffffffff1673ffffffffffffffffffffffffffffffffffffffff16815260200190815260200160002054905092915050565b60095481565b610a1d3382610c44565b50565b600033905090565b610a358383836001610cc6565b505050565b6000610a468484610986565b90507fffffffffffffffffffffffffffffffffffffffffffffffffffffffffffffffff8114610ac85781811015610ab8578281836040517ffb8f41b2000000000000000000000000000000000000000000000000000000008152600401610aaf93929190611923565b60405180910390fd5b610ac784848484036000610cc6565b5b50505050565b600073ffffffffffffffffffffffffffffffffffffffff168373ffffffffffffffffffffffffffffffffffffffff1603610b405760006040517f96c6fd1e000000000000000000000000000000000000000000000000000000008152600401610b37919061195a565b60405180910390fd5b600073ffffffffffffffffffffffffffffffffffffffff168273ffffffffffffffffffffffffffffffffffffffff1603610bb25760006040517fec442f05000000000000000000000000000000000000000000000000000000008152600401610ba9919061195a565b60405180910390fd5b610bbd838383610e9d565b505050565b600073ffffffffffffffffffffffffffffffffffffffff168273ffffffffffffffffffffffffffffffffffffffff1603610c345760006040517fec442f05000000000000000000000000000000000000000000000000000000008152600401610c2b919061195a565b60405180910390fd5b610c4060008383610e9d565b5050565b600073ffffffffffffffffffffffffffffffffffffffff168273ffffffffffffffffffffffffffffffffffffffff1603610cb65760006040517f96c6fd1e000000000000000000000000000000000000000000000000000000008152600401610cad919061195a565b60405180910390fd5b610cc282600083610e9d565b5050565b600073ffffffffffffffffffffffffffffffffffffffff168473ffffffffffffffffffffffffffffffffffffffff1603610d385760006040517fe602df05000000000000000000000000000000000000000000000000000000008152600401610d2f919061195a565b60405180910390fd5b600073ffffffffffffffffffffffffffffffffffffffff168373ffffffffffffffffffffffffffffffffffffffff1603610daa5760006040517f94280d62000000000000000000000000000000000000000000000000000000008152600401610da1919061195a565b60405180910390fd5b81600160008673ffffffffffffffffffffffffffffffffffffffff1673ffffffffffffffffffffffffffffffffffffffff16815260200190815260200160002060008573ffffffffffffffffffffffffffffffffffffffff1673ffffffffffffffffffffffffffffffffffffffff168152602001908152602001600020819055508015610e97578273ffffffffffffffffffffffffffffffffffffffff168473ffffffffffffffffffffffffffffffffffffffff167f8c5be1e5ebec7d5bd14f71427d1e84f3dd0314c0f7b2291e5b200ac8c7c3b92584604051610e8e9190611297565b60405180910390a35b50505050565b600073ffffffffffffffffffffffffffffffffffffffff168373ffffffffffffffffffffffffffffffffffffffff1603610eef578060026000828254610ee39190611975565b92505081905550610fc2565b60008060008573ffffffffffffffffffffffffffffffffffffffff1673ffffffffffffffffffffffffffffffffffffffff16815260200190815260200160002054905081811015610f7b578381836040517fe450d38c000000000000000000000000000000000000000000000000000000008152600401610f7293929190611923565b60405180910390fd5b8181036000808673ffffffffffffffffffffffffffffffffffffffff1673ffffffffffffffffffffffffffffffffffffffff16815260200190815260200160002081905550505b600073ffffffffffffffffffffffffffffffffffffffff168273ffffffffffffffffffffffffffffffffffffffff160361100b5780600260008282540392505081905550611058565b806000808473ffffffffffffffffffffffffffffffffffffffff1673ffffffffffffffffffffffffffffffffffffffff168152602001908152602001600020600082825401925050819055505b8173ffffffffffffffffffffffffffffffffffffffff168373ffffffffffffffffffffffffffffffffffffffff167fddf252ad1be2c89b69c2b068fc378daa952ba7f163c4a11628f55a4df523b3ef836040516110b59190611297565b60405180910390a3505050565b600081519050919050565b600082825260208201905092915050565b60005b838110156110fc5780820151818401526020810190506110e1565b60008484015250505050565b6000601f19601f8301169050919050565b6000611124826110c2565b61112e81856110cd565b935061113e8185602086016110de565b61114781611108565b840191505092915050565b6000602082019050818103600083015261116c8184611119565b905092915050565b600080fd5b600080fd5b600073ffffffffffffffffffffffffffffffffffffffff82169050919050565b60006111a98261117e565b9050919050565b6111b98161119e565b81146111c457600080fd5b50565b6000813590506111d6816111b0565b92915050565b6000819050919050565b6111ef816111dc565b81146111fa57600080fd5b50565b60008135905061120c816111e6565b92915050565b6000806040838503121561122957611228611174565b5b6000611237858286016111c7565b9250506020611248858286016111fd565b9150509250929050565b60008115159050919050565b61126781611252565b82525050565b6000602082019050611282600083018461125e565b92915050565b611291816111dc565b82525050565b60006020820190506112ac6000830184611288565b92915050565b6000806000606084860312156112cb576112ca611174565b5b60006112d9868287016111c7565b93505060206112ea868287016111c7565b92505060406112fb868287016111fd565b9150509250925092565b600060ff82169050919050565b61131b81611305565b82525050565b60006020820190506113366000830184611312565b92915050565b60006020828403121561135257611351611174565b5b6000611360848285016111c7565b91505092915050565b600080fd5b600080fd5b600080fd5b60008083601f84011261138e5761138d611369565b5b8235905067ffffffffffffffff8111156113ab576113aa61136e565b5b6020830191508360018202830111156113c7576113c6611373565b5b9250929050565b600080602083850312156113e5576113e4611174565b5b600083013567ffffffffffffffff81111561140357611402611179565b5b61140f85828601611378565b92509250509250929050565b6000806040838503121561143257611431611174565b5b6000611440858286016111c7565b9250506020611451858286016111c7565b9150509250929050565b60006020828403121561147157611470611174565b5b600061147f848285016111fd565b91505092915050565b7f4e487b7100000000000000000000000000000000000000000000000000000000600052602260045260246000fd5b600060028204905060018216806114cf57607f821691505b6020821081036114e2576114e1611488565b5b50919050565b7f796f7520617265206e6f7420746865206f776e65720000000000000000000000600082015250565b600061151e6015836110cd565b9150611529826114e8565b602082019050919050565b6000602082019050818103600083015261154d81611511565b9050919050565b7f4e487b7100000000000000000000000000000000000000000000000000000000600052601260045260246000fd5b7f4e487b7100000000000000000000000000000000000000000000000000000000600052601160045260246000fd5b60006115bd826111dc565b91506115c8836111dc565b9250826115d8576115d7611554565b5b828204905092915050565b600081905092915050565b7f4865616c74680000000000000000000000000000000000000000000000000000600082015250565b60006116246006836115e3565b915061162f826115ee565b600682019050919050565b600061164582611617565b9150819050919050565b82818337600083830152505050565b600061166a83856115e3565b935061167783858461164f565b82840190509392505050565b600061169082848661165e565b91508190509392505050565b7f4e6f7420656e6f75676820446567656e20546f6b656e7320746f20627579206860008201527f65616c7468000000000000000000000000000000000000000000000000000000602082015250565b60006116f86025836110cd565b91506117038261169c565b604082019050919050565b60006020820190508181036000830152611727816116eb565b9050919050565b7f536b696e00000000000000000000000000000000000000000000000000000000600082015250565b60006117646004836115e3565b915061176f8261172e565b600482019050919050565b600061178582611757565b9150819050919050565b7f4e6f7420656e6f75676820446567656e20546f6b656e7320746f20627579207360008201527f6b696e0000000000000000000000000000000000000000000000000000000000602082015250565b60006117eb6023836110cd565b91506117f68261178f565b604082019050919050565b6000602082019050818103600083015261181a816117de565b9050919050565b7f456d626c656d0000000000000000000000000000000000000000000000000000600082015250565b60006118576006836115e3565b915061186282611821565b600682019050919050565b60006118788261184a565b9150819050919050565b7f4e6f7420656e6f75676820446567656e20546f6b656e7320746f20627579206560008201527f6d626c656d000000000000000000000000000000000000000000000000000000602082015250565b60006118de6025836110cd565b91506118e982611882565b604082019050919050565b6000602082019050818103600083015261190d816118d1565b9050919050565b61191d8161119e565b82525050565b60006060820190506119386000830186611914565b6119456020830185611288565b6119526040830184611288565b949350505050565b600060208201905061196f6000830184611914565b92915050565b6000611980826111dc565b915061198b836111dc565b92508282019050808211156119a3576119a2611583565b5b9291505056fea26469706673582212204a4bf80f6ab814c6984f29510048084f14e571b37d43b7a43989be0228e6a8aa64736f6c63430008180033",
  "linkReferences": {},
  "deployedLinkReferences": {}
}