{
  "_format": "hh-sol-artifact-1",
  "contractName": "DegenToken",
  "sourceName": "contracts/DegenToken.sol",
  "abi": [
    {
      "inputs": [],
      "stateMutability": "nonpayable",
      "type": "constructor"
    },
    {
      "inputs": [
        {
          "internalType": "address",
          "name": "spender",
          "type": "address"
        },
        {
          "internalType": "uint256",
          "name": "allowance",
          "type": "uint256"
        },
        {
          "internalType": "uint256",
          "name": "needed",
          "type": "uint256"
        }
      ],
      "name": "ERC20InsufficientAllowance",
      "type": "error"
    },
    {
      "inputs": [
        {
          "internalType": "address",
          "name": "sender",
          "type": "address"
        },
        {
          "internalType": "uint256",
          "name": "balance",
          "type": "uint256"
        },
        {
          "internalType": "uint256",
          "name": "needed",
          "type": "uint256"
        }
      ],
      "name": "ERC20InsufficientBalance",
      "type": "error"
    },
    {
      "inputs": [
        {
          "internalType": "address",
          "name": "approver",
          "type": "address"
        }
      ],
      "name": "ERC20InvalidApprover",
      "type": "error"
    },
    {
      "inputs": [
        {
          "internalType": "address",
          "name": "receiver",
          "type": "address"
        }
      ],
      "name": "ERC20InvalidReceiver",
      "type": "error"
    },
    {
      "inputs": [
        {
          "internalType": "address",
          "name": "sender",
          "type": "address"
        }
      ],
      "name": "ERC20InvalidSender",
      "type": "error"
    },
    {
      "inputs": [
        {
          "internalType": "address",
          "name": "spender",
          "type": "address"
        }
      ],
      "name": "ERC20InvalidSpender",
      "type": "error"
    },
    {
      "anonymous": false,
      "inputs": [
        {
          "indexed": true,
          "internalType": "address",
          "name": "owner",
          "type": "address"
        },
        {
          "indexed": true,
          "internalType": "address",
          "name": "spender",
          "type": "address"
        },
        {
          "indexed": false,
          "internalType": "uint256",
          "name": "value",
          "type": "uint256"
        }
      ],
      "name": "Approval",
      "type": "event"
    },
    {
      "anonymous": false,
      "inputs": [
        {
          "indexed": true,
          "internalType": "address",
          "name": "from",
          "type": "address"
        },
        {
          "indexed": true,
          "internalType": "address",
          "name": "to",
          "type": "address"
        },
        {
          "indexed": false,
          "internalType": "uint256",
          "name": "value",
          "type": "uint256"
        }
      ],
      "name": "Transfer",
      "type": "event"
    },
    {
      "inputs": [
        {
          "internalType": "address",
          "name": "owner",
          "type": "address"
        },
        {
          "internalType": "address",
          "name": "spender",
          "type": "address"
        }
      ],
      "name": "allowance",
      "outputs": [
        {
          "internalType": "uint256",
          "name": "",
          "type": "uint256"
        }
      ],
      "stateMutability": "view",
      "type": "function"
    },
    {
      "inputs": [
        {
          "internalType": "address",
          "name": "spender",
          "type": "address"
        },
        {
          "internalType": "uint256",
          "name": "value",
          "type": "uint256"
        }
      ],
      "name": "approve",
      "outputs": [
        {
          "internalType": "bool",
          "name": "",
          "type": "bool"
        }
      ],
      "stateMutability": "nonpayable",
      "type": "function"
    },
    {
      "inputs": [
        {
          "internalType": "address",
          "name": "account",
          "type": "address"
        }
      ],
      "name": "balanceOf",
      "outputs": [
        {
          "internalType": "uint256",
          "name": "",
          "type": "uint256"
        }
      ],
      "stateMutability": "view",
      "type": "function"
    },
    {
      "inputs": [
        {
          "internalType": "uint256",
          "name": "amount",
          "type": "uint256"
        }
      ],
      "name": "burnDegenToken",
      "outputs": [],
      "stateMutability": "nonpayable",
      "type": "function"
    },
    {
      "inputs": [],
      "name": "buyEmblem",
      "outputs": [],
      "stateMutability": "nonpayable",
      "type": "function"
    },
    {
      "inputs": [],
      "name": "buyHealth",
      "outputs": [],
      "stateMutability": "nonpayable",
      "type": "function"
    },
    {
      "inputs": [],
      "name": "buySkin",
      "outputs": [],
      "stateMutability": "nonpayable",
      "type": "function"
    },
    {
      "inputs": [],
      "name": "buyToken",
      "outputs": [],
      "stateMutability": "payable",
      "type": "function"
    },
    {
      "inputs": [],
      "name": "decimals",
      "outputs": [
        {
          "internalType": "uint8",
          "name": "",
          "type": "uint8"
        }
      ],
      "stateMutability": "view",
      "type": "function"
    },
    {
      "inputs": [],
      "name": "emblemCost",
      "outputs": [
        {
          "internalType": "uint256",
          "name": "",
          "type": "uint256"
        }
      ],
      "stateMutability": "view",
      "type": "function"
    },
    {
      "inputs": [
        {
          "internalType": "address",
          "name": "player",
          "type": "address"
        }
      ],
      "name": "getTokenBalance",
      "outputs": [
        {
          "internalType": "uint256",
          "name": "",
          "type": "uint256"
        }
      ],
      "stateMutability": "nonpayable",
      "type": "function"
    },
    {
      "inputs": [],
      "name": "healthCost",
      "outputs": [
        {
          "internalType": "uint256",
          "name": "",
          "type": "uint256"
        }
      ],
      "stateMutability": "view",
      "type": "function"
    },
    {
      "inputs": [
        {
          "internalType": "address",
          "name": "_player",
          "type": "address"
        },
        {
          "internalType": "uint256",
          "name": "_amount",
          "type": "uint256"
        }
      ],
      "name": "mintDegenToken",
      "outputs": [],
      "stateMutability": "nonpayable",
      "type": "function"
    },
    {
      "inputs": [],
      "name": "name",
      "outputs": [
        {
          "internalType": "string",
          "name": "",
          "type": "string"
        }
      ],
      "stateMutability": "view",
      "type": "function"
    },
    {
      "inputs": [],
      "name": "skinCost",
      "outputs": [
        {
          "internalType": "uint256",
          "name": "",
          "type": "uint256"
        }
      ],
      "stateMutability": "view",
      "type": "function"
    },
    {
      "inputs": [],
      "name": "symbol",
      "outputs": [
        {
          "internalType": "string",
          "name": "",
          "type": "string"
        }
      ],
      "stateMutability": "view",
      "type": "function"
    },
    {
      "inputs": [],
      "name": "tokenPrice",
      "outputs": [
        {
          "internalType": "uint256",
          "name": "",
          "type": "uint256"
        }
      ],
      "stateMutability": "view",
      "type": "function"
    },
    {
      "inputs": [],
      "name": "totalSupply",
      "outputs": [
        {
          "internalType": "uint256",
          "name": "",
          "type": "uint256"
        }
      ],
      "stateMutability": "view",
      "type": "function"
    },
    {
      "inputs": [
        {
          "internalType": "address",
          "name": "to",
          "type": "address"
        },
        {
          "internalType": "uint256",
          "name": "value",
          "type": "uint256"
        }
      ],
      "name": "transfer",
      "outputs": [
        {
          "internalType": "bool",
          "name": "",
          "type": "bool"
        }
      ],
      "stateMutability": "nonpayable",
      "type": "function"
    },
    {
      "inputs": [
        {
          "internalType": "address",
          "name": "to",
          "type": "address"
        },
        {
          "internalType": "uint256",
          "name": "amount",
          "type": "uint256"
        }
      ],
      "name": "transferDegenToken",
      "outputs": [],
      "stateMutability": "nonpayable",
      "type": "function"
    },
    {
      "inputs": [
        {
          "internalType": "address",
          "name": "from",
          "type": "address"
        },
        {
          "internalType": "address",
          "name": "to",
          "type": "address"
        },
        {
          "internalType": "uint256",
          "name": "value",
          "type": "uint256"
        }
      ],
      "name": "transferFrom",
      "outputs": [
        {
          "internalType": "bool",
          "name": "",
          "type": "bool"
        }
      ],
      "stateMutability": "nonpayable",
      "type": "function"
    }
  ],
  "bytecode": "0x60806040523480156200001157600080fd5b506040518060400160405280600a81526020017f446567656e546f6b656e000000000000000000000000000000000000000000008152506040518060400160405280600381526020017f44474e000000000000000000000000000000000000000000000000000000000081525081600390816200008f919062000385565b508060049081620000a1919062000385565b50505033600560006101000a81548173ffffffffffffffffffffffffffffffffffffffff021916908373ffffffffffffffffffffffffffffffffffffffff1602179055506064600681905550600a600781905550600560088190555060026009819055506200046c565b600081519050919050565b7f4e487b7100000000000000000000000000000000000000000000000000000000600052604160045260246000fd5b7f4e487b7100000000000000000000000000000000000000000000000000000000600052602260045260246000fd5b600060028204905060018216806200018d57607f821691505b602082108103620001a357620001a262000145565b5b50919050565b60008190508160005260206000209050919050565b60006020601f8301049050919050565b600082821b905092915050565b6000600883026200020d7fffffffffffffffffffffffffffffffffffffffffffffffffffffffffffffffff82620001ce565b620002198683620001ce565b95508019841693508086168417925050509392505050565b6000819050919050565b6000819050919050565b600062000266620002606200025a8462000231565b6200023b565b62000231565b9050919050565b6000819050919050565b620002828362000245565b6200029a62000291826200026d565b848454620001db565b825550505050565b600090565b620002b1620002a2565b620002be81848462000277565b505050565b5b81811015620002e657620002da600082620002a7565b600181019050620002c4565b5050565b601f8211156200033557620002ff81620001a9565b6200030a84620001be565b810160208510156200031a578190505b620003326200032985620001be565b830182620002c3565b50505b505050565b600082821c905092915050565b60006200035a600019846008026200033a565b1980831691505092915050565b600062000375838362000347565b9150826002028217905092915050565b62000390826200010b565b67ffffffffffffffff811115620003ac57620003ab62000116565b5b620003b8825462000174565b620003c5828285620002ea565b600060209050601f831160018114620003fd5760008415620003e8578287015190505b620003f4858262000367565b86555062000464565b601f1984166200040d86620001a9565b60005b82811015620004375784890151825560018201915060208501945060208101905062000410565b8683101562000457578489015162000453601f89168262000347565b8355505b6001600288020188555050505b505050505050565b6116db806200047c6000396000f3fe60806040526004361061012a5760003560e01c8063662a0df6116100ab578063a48217191161006f578063a4821719146103bc578063a9059cbb146103c6578063d77243e914610403578063dd62ed3e1461042e578063ddaa86801461046b578063f195bab5146104965761012a565b8063662a0df6146102e95780636985ce0e1461030057806370a08231146103295780637ff9b5961461036657806395d89b41146103915761012a565b80632dc64e12116100f25780632dc64e1214610216578063313ce5671461023f5780633aecd0e31461026a5780635c79094e146102a75780635dab47fb146102d25761012a565b806306fdde031461012f578063095ea7b31461015a5780631657d2281461019757806318160ddd146101ae57806323b872dd146101d9575b600080fd5b34801561013b57600080fd5b506101446104bf565b6040516101519190611080565b60405180910390f35b34801561016657600080fd5b50610181600480360381019061017c919061113b565b610551565b60405161018e9190611196565b60405180910390f35b3480156101a357600080fd5b506101ac610574565b005b3480156101ba57600080fd5b506101c36105cf565b6040516101d091906111c0565b60405180910390f35b3480156101e557600080fd5b5061020060048036038101906101fb91906111db565b6105d9565b60405161020d9190611196565b60405180910390f35b34801561022257600080fd5b5061023d6004803603810190610238919061113b565b610608565b005b34801561024b57600080fd5b50610254610617565b604051610261919061124a565b60405180910390f35b34801561027657600080fd5b50610291600480360381019061028c9190611265565b610620565b60405161029e91906111c0565b60405180910390f35b3480156102b357600080fd5b506102bc610632565b6040516102c991906111c0565b60405180910390f35b3480156102de57600080fd5b506102e7610638565b005b3480156102f557600080fd5b506102fe610693565b005b34801561030c57600080fd5b506103276004803603810190610322919061113b565b6106ee565b005b34801561033557600080fd5b50610350600480360381019061034b9190611265565b61078c565b60405161035d91906111c0565b60405180910390f35b34801561037257600080fd5b5061037b6107d4565b60405161038891906111c0565b60405180910390f35b34801561039d57600080fd5b506103a66107da565b6040516103b39190611080565b60405180910390f35b6103c461086c565b005b3480156103d257600080fd5b506103ed60048036038101906103e8919061113b565b61088b565b6040516103fa9190611196565b60405180910390f35b34801561040f57600080fd5b506104186108ae565b60405161042591906111c0565b60405180910390f35b34801561043a57600080fd5b5061045560048036038101906104509190611292565b6108b4565b60405161046291906111c0565b60405180910390f35b34801561047757600080fd5b5061048061093b565b60405161048d91906111c0565b60405180910390f35b3480156104a257600080fd5b506104bd60048036038101906104b891906112d2565b610941565b005b6060600380546104ce9061132e565b80601f01602080910402602001604051908101604052809291908181526020018280546104fa9061132e565b80156105475780601f1061051c57610100808354040283529160200191610547565b820191906000526020600020905b81548152906001019060200180831161052a57829003601f168201915b5050505050905090565b60008061055c61094e565b9050610569818585610956565b600191505092915050565b6009546105803361078c565b10156105c1576040517f08c379a00000000000000000000000000000000000000000000000000000000081526004016105b8906113d1565b60405180910390fd5b6105cd33600954610968565b565b6000600254905090565b6000806105e461094e565b90506105f18582856109ea565b6105fc858585610a7e565b60019150509392505050565b610613338383610a7e565b5050565b60006012905090565b600061062b8261078c565b9050919050565b60075481565b6008546106443361078c565b1015610685576040517f08c379a000000000000000000000000000000000000000000000000000000000815260040161067c90611463565b60405180910390fd5b61069133600854610968565b565b60075461069f3361078c565b10156106e0576040517f08c379a00000000000000000000000000000000000000000000000000000000081526004016106d7906114f5565b60405180910390fd5b6106ec33600754610968565b565b600560009054906101000a900473ffffffffffffffffffffffffffffffffffffffff1673ffffffffffffffffffffffffffffffffffffffff163373ffffffffffffffffffffffffffffffffffffffff161461077e576040517f08c379a000000000000000000000000000000000000000000000000000000000815260040161077590611561565b60405180910390fd5b6107888282610b72565b5050565b60008060008373ffffffffffffffffffffffffffffffffffffffff1673ffffffffffffffffffffffffffffffffffffffff168152602001908152602001600020549050919050565b60065481565b6060600480546107e99061132e565b80601f01602080910402602001604051908101604052809291908181526020018280546108159061132e565b80156108625780601f1061083757610100808354040283529160200191610862565b820191906000526020600020905b81548152906001019060200180831161084557829003601f168201915b5050505050905090565b60006006543461087c91906115df565b90506108883382610b72565b50565b60008061089661094e565b90506108a3818585610a7e565b600191505092915050565b60085481565b6000600160008473ffffffffffffffffffffffffffffffffffffffff1673ffffffffffffffffffffffffffffffffffffffff16815260200190815260200160002060008373ffffffffffffffffffffffffffffffffffffffff1673ffffffffffffffffffffffffffffffffffffffff16815260200190815260200160002054905092915050565b60095481565b61094b3382610968565b50565b600033905090565b6109638383836001610bf4565b505050565b600073ffffffffffffffffffffffffffffffffffffffff168273ffffffffffffffffffffffffffffffffffffffff16036109da5760006040517f96c6fd1e0000000000000000000000000000000000000000000000000000000081526004016109d1919061161f565b60405180910390fd5b6109e682600083610dcb565b5050565b60006109f684846108b4565b90507fffffffffffffffffffffffffffffffffffffffffffffffffffffffffffffffff8114610a785781811015610a68578281836040517ffb8f41b2000000000000000000000000000000000000000000000000000000008152600401610a5f9392919061163a565b60405180910390fd5b610a7784848484036000610bf4565b5b50505050565b600073ffffffffffffffffffffffffffffffffffffffff168373ffffffffffffffffffffffffffffffffffffffff1603610af05760006040517f96c6fd1e000000000000000000000000000000000000000000000000000000008152600401610ae7919061161f565b60405180910390fd5b600073ffffffffffffffffffffffffffffffffffffffff168273ffffffffffffffffffffffffffffffffffffffff1603610b625760006040517fec442f05000000000000000000000000000000000000000000000000000000008152600401610b59919061161f565b60405180910390fd5b610b6d838383610dcb565b505050565b600073ffffffffffffffffffffffffffffffffffffffff168273ffffffffffffffffffffffffffffffffffffffff1603610be45760006040517fec442f05000000000000000000000000000000000000000000000000000000008152600401610bdb919061161f565b60405180910390fd5b610bf060008383610dcb565b5050565b600073ffffffffffffffffffffffffffffffffffffffff168473ffffffffffffffffffffffffffffffffffffffff1603610c665760006040517fe602df05000000000000000000000000000000000000000000000000000000008152600401610c5d919061161f565b60405180910390fd5b600073ffffffffffffffffffffffffffffffffffffffff168373ffffffffffffffffffffffffffffffffffffffff1603610cd85760006040517f94280d62000000000000000000000000000000000000000000000000000000008152600401610ccf919061161f565b60405180910390fd5b81600160008673ffffffffffffffffffffffffffffffffffffffff1673ffffffffffffffffffffffffffffffffffffffff16815260200190815260200160002060008573ffffffffffffffffffffffffffffffffffffffff1673ffffffffffffffffffffffffffffffffffffffff168152602001908152602001600020819055508015610dc5578273ffffffffffffffffffffffffffffffffffffffff168473ffffffffffffffffffffffffffffffffffffffff167f8c5be1e5ebec7d5bd14f71427d1e84f3dd0314c0f7b2291e5b200ac8c7c3b92584604051610dbc91906111c0565b60405180910390a35b50505050565b600073ffffffffffffffffffffffffffffffffffffffff168373ffffffffffffffffffffffffffffffffffffffff1603610e1d578060026000828254610e119190611671565b92505081905550610ef0565b60008060008573ffffffffffffffffffffffffffffffffffffffff1673ffffffffffffffffffffffffffffffffffffffff16815260200190815260200160002054905081811015610ea9578381836040517fe450d38c000000000000000000000000000000000000000000000000000000008152600401610ea09392919061163a565b60405180910390fd5b8181036000808673ffffffffffffffffffffffffffffffffffffffff1673ffffffffffffffffffffffffffffffffffffffff16815260200190815260200160002081905550505b600073ffffffffffffffffffffffffffffffffffffffff168273ffffffffffffffffffffffffffffffffffffffff1603610f395780600260008282540392505081905550610f86565b806000808473ffffffffffffffffffffffffffffffffffffffff1673ffffffffffffffffffffffffffffffffffffffff168152602001908152602001600020600082825401925050819055505b8173ffffffffffffffffffffffffffffffffffffffff168373ffffffffffffffffffffffffffffffffffffffff167fddf252ad1be2c89b69c2b068fc378daa952ba7f163c4a11628f55a4df523b3ef83604051610fe391906111c0565b60405180910390a3505050565b600081519050919050565b600082825260208201905092915050565b60005b8381101561102a57808201518184015260208101905061100f565b60008484015250505050565b6000601f19601f8301169050919050565b600061105282610ff0565b61105c8185610ffb565b935061106c81856020860161100c565b61107581611036565b840191505092915050565b6000602082019050818103600083015261109a8184611047565b905092915050565b600080fd5b600073ffffffffffffffffffffffffffffffffffffffff82169050919050565b60006110d2826110a7565b9050919050565b6110e2816110c7565b81146110ed57600080fd5b50565b6000813590506110ff816110d9565b92915050565b6000819050919050565b61111881611105565b811461112357600080fd5b50565b6000813590506111358161110f565b92915050565b60008060408385031215611152576111516110a2565b5b6000611160858286016110f0565b925050602061117185828601611126565b9150509250929050565b60008115159050919050565b6111908161117b565b82525050565b60006020820190506111ab6000830184611187565b92915050565b6111ba81611105565b82525050565b60006020820190506111d560008301846111b1565b92915050565b6000806000606084860312156111f4576111f36110a2565b5b6000611202868287016110f0565b9350506020611213868287016110f0565b925050604061122486828701611126565b9150509250925092565b600060ff82169050919050565b6112448161122e565b82525050565b600060208201905061125f600083018461123b565b92915050565b60006020828403121561127b5761127a6110a2565b5b6000611289848285016110f0565b91505092915050565b600080604083850312156112a9576112a86110a2565b5b60006112b7858286016110f0565b92505060206112c8858286016110f0565b9150509250929050565b6000602082840312156112e8576112e76110a2565b5b60006112f684828501611126565b91505092915050565b7f4e487b7100000000000000000000000000000000000000000000000000000000600052602260045260246000fd5b6000600282049050600182168061134657607f821691505b602082108103611359576113586112ff565b5b50919050565b7f4e6f7420656e6f75676820446567656e20546f6b656e7320746f20627579206560008201527f6d626c656d000000000000000000000000000000000000000000000000000000602082015250565b60006113bb602583610ffb565b91506113c68261135f565b604082019050919050565b600060208201905081810360008301526113ea816113ae565b9050919050565b7f4e6f7420656e6f75676820446567656e20546f6b656e7320746f20627579207360008201527f6b696e0000000000000000000000000000000000000000000000000000000000602082015250565b600061144d602383610ffb565b9150611458826113f1565b604082019050919050565b6000602082019050818103600083015261147c81611440565b9050919050565b7f4e6f7420656e6f75676820446567656e20546f6b656e7320746f20627579206860008201527f65616c7468000000000000000000000000000000000000000000000000000000602082015250565b60006114df602583610ffb565b91506114ea82611483565b604082019050919050565b6000602082019050818103600083015261150e816114d2565b9050919050565b7f796f7520617265206e6f7420746865206f776e65720000000000000000000000600082015250565b600061154b601583610ffb565b915061155682611515565b602082019050919050565b6000602082019050818103600083015261157a8161153e565b9050919050565b7f4e487b7100000000000000000000000000000000000000000000000000000000600052601260045260246000fd5b7f4e487b7100000000000000000000000000000000000000000000000000000000600052601160045260246000fd5b60006115ea82611105565b91506115f583611105565b92508261160557611604611581565b5b828204905092915050565b611619816110c7565b82525050565b60006020820190506116346000830184611610565b92915050565b600060608201905061164f6000830186611610565b61165c60208301856111b1565b61166960408301846111b1565b949350505050565b600061167c82611105565b915061168783611105565b925082820190508082111561169f5761169e6115b0565b5b9291505056fea2646970667358221220f8606f46ee57dbdd81c8571103cf47738de4f047534b64d48824d3bde77cf42b64736f6c63430008180033",
  "linkReferences": {},
  "deployedLinkReferences": {}
}